{
  "address": "0xe7f1725E7734CE288F8367e1Bb143E90bb3F0512",
  "abi": [
    {
      "inputs": [
        {
          "internalType": "address",
          "name": "priceFeedAdderss",
          "type": "address"
        }
      ],
      "stateMutability": "nonpayable",
      "type": "constructor"
    },
    {
      "inputs": [],
      "name": "FunMe_Owner",
      "type": "error"
    },
    {
      "anonymous": false,
      "inputs": [
        {
          "indexed": true,
          "internalType": "address",
          "name": "from",
          "type": "address"
        },
        {
          "indexed": false,
          "internalType": "uint256",
          "name": "amount",
          "type": "uint256"
        }
      ],
      "name": "Funded",
      "type": "event"
    },
    {
      "stateMutability": "payable",
      "type": "fallback"
    },
    {
      "inputs": [],
      "name": "MIN_USD",
      "outputs": [
        {
          "internalType": "uint256",
          "name": "",
          "type": "uint256"
        }
      ],
      "stateMutability": "view",
      "type": "function"
    },
    {
      "inputs": [],
      "name": "cheaperWithdraw",
      "outputs": [],
      "stateMutability": "payable",
      "type": "function"
    },
    {
      "inputs": [],
      "name": "fund",
      "outputs": [],
      "stateMutability": "payable",
      "type": "function"
    },
    {
      "inputs": [
        {
          "internalType": "address",
          "name": "funder",
          "type": "address"
        }
      ],
      "name": "getAddressToAmountFunded",
      "outputs": [
        {
          "internalType": "uint256",
          "name": "",
          "type": "uint256"
        }
      ],
      "stateMutability": "view",
      "type": "function"
    },
    {
      "inputs": [
        {
          "internalType": "uint256",
          "name": "index",
          "type": "uint256"
        }
      ],
      "name": "getFunders",
      "outputs": [
        {
          "internalType": "address",
          "name": "",
          "type": "address"
        }
      ],
      "stateMutability": "view",
      "type": "function"
    },
    {
      "inputs": [],
      "name": "getOwner",
      "outputs": [
        {
          "internalType": "address",
          "name": "",
          "type": "address"
        }
      ],
      "stateMutability": "view",
      "type": "function"
    },
    {
      "inputs": [],
      "name": "getPriceFeed",
      "outputs": [
        {
          "internalType": "contract AggregatorV3Interface",
          "name": "",
          "type": "address"
        }
      ],
      "stateMutability": "view",
      "type": "function"
    },
    {
      "inputs": [],
      "name": "withdraw",
      "outputs": [],
      "stateMutability": "nonpayable",
      "type": "function"
    },
    {
      "stateMutability": "payable",
      "type": "receive"
    }
  ],
  "transactionHash": "0xbfb94915d54fe3113af5cd21784afafbf678e4257ea4ba7747ff9fc7381fea00",
  "args": [
    "0x5FbDB2315678afecb367f032d93F642f64180aa3"
  ],
  "numDeployments": 1,
  "solcInputHash": "3d8f478d333cfdd39ef68aaaf6238af6",
  "bytecode": "0x60a06040523480156200001157600080fd5b506040516200144738038062001447833981810160405281019062000037919062000120565b3373ffffffffffffffffffffffffffffffffffffffff1660808173ffffffffffffffffffffffffffffffffffffffff1660601b8152505080600260006101000a81548173ffffffffffffffffffffffffffffffffffffffff021916908373ffffffffffffffffffffffffffffffffffffffff1602179055505062000152565b600080fd5b600073ffffffffffffffffffffffffffffffffffffffff82169050919050565b6000620000e882620000bb565b9050919050565b620000fa81620000db565b81146200010657600080fd5b50565b6000815190506200011a81620000ef565b92915050565b600060208284031215620001395762000138620000b6565b5b6000620001498482850162000109565b91505092915050565b60805160601c6112c162000186600039600081816102450152818161054801528181610718015261090e01526112c16000f3fe60806040526004361061007f5760003560e01c8063893d20e81161004e578063893d20e8146101445780639e87a5cd1461016f578063b60d42881461019a578063be2693f0146101a457610086565b80630343fb2514610088578063213dbea2146100c55780633a7b6c74146100f05780633ccfd60b1461012d57610086565b3661008657005b005b34801561009457600080fd5b506100af60048036038101906100aa9190610b8d565b6101ae565b6040516100bc9190610bd3565b60405180910390f35b3480156100d157600080fd5b506100da6101f6565b6040516100e79190610bd3565b60405180910390f35b3480156100fc57600080fd5b5061011760048036038101906101129190610c1a565b6101fb565b6040516101249190610c56565b60405180910390f35b34801561013957600080fd5b50610142610243565b005b34801561015057600080fd5b50610159610544565b6040516101669190610c56565b60405180910390f35b34801561017b57600080fd5b5061018461056c565b6040516101919190610cd0565b60405180910390f35b6101a2610596565b005b6101ac610716565b005b60008060008373ffffffffffffffffffffffffffffffffffffffff1673ffffffffffffffffffffffffffffffffffffffff168152602001908152602001600020549050919050565b603281565b60006001828154811061021157610210610ceb565b5b9060005260206000200160009054906101000a900473ffffffffffffffffffffffffffffffffffffffff169050919050565b7f000000000000000000000000000000000000000000000000000000000000000073ffffffffffffffffffffffffffffffffffffffff163373ffffffffffffffffffffffffffffffffffffffff16146102c8576040517f50d99b8500000000000000000000000000000000000000000000000000000000815260040160405180910390fd5b60005b600180549050811015610373576000600182815481106102ee576102ed610ceb565b5b9060005260206000200160009054906101000a900473ffffffffffffffffffffffffffffffffffffffff16905060008060008373ffffffffffffffffffffffffffffffffffffffff1673ffffffffffffffffffffffffffffffffffffffff1681526020019081526020016000208190555050808061036b90610d49565b9150506102cb565b50600067ffffffffffffffff81111561038f5761038e610d92565b5b6040519080825280602002602001820160405280156103bd5781602001602082028036833780820191505090505b50600190805190602001906103d3929190610a83565b503373ffffffffffffffffffffffffffffffffffffffff166108fc479081150290604051600060405180830381858888f1935050505015801561041a573d6000803e3d6000fd5b5060003373ffffffffffffffffffffffffffffffffffffffff166108fc479081150290604051600060405180830381858888f19350505050905080610494576040517f08c379a000000000000000000000000000000000000000000000000000000000815260040161048b90610e1e565b60405180910390fd5b60003373ffffffffffffffffffffffffffffffffffffffff16476040516104ba90610e6f565b60006040518083038185875af1925050503d80600081146104f7576040519150601f19603f3d011682016040523d82523d6000602084013e6104fc565b606091505b5050905080610540576040517f08c379a000000000000000000000000000000000000000000000000000000000815260040161053790610ed0565b60405180910390fd5b5050565b60007f0000000000000000000000000000000000000000000000000000000000000000905090565b6000600260009054906101000a900473ffffffffffffffffffffffffffffffffffffffff16905090565b60326105cd600260009054906101000a900473ffffffffffffffffffffffffffffffffffffffff16346109a490919063ffffffff16565b101561060e576040517f08c379a000000000000000000000000000000000000000000000000000000000815260040161060590610f3c565b60405180910390fd5b6001339080600181540180825580915050600190039060005260206000200160009091909190916101000a81548173ffffffffffffffffffffffffffffffffffffffff021916908373ffffffffffffffffffffffffffffffffffffffff160217905550346000803373ffffffffffffffffffffffffffffffffffffffff1673ffffffffffffffffffffffffffffffffffffffff16815260200190815260200160002060008282546106bf9190610f5c565b925050819055503373ffffffffffffffffffffffffffffffffffffffff167f5af8184bef8e4b45eb9f6ed7734d04da38ced226495548f46e0c8ff8d7d9a5243460405161070c9190610bd3565b60405180910390a2565b7f000000000000000000000000000000000000000000000000000000000000000073ffffffffffffffffffffffffffffffffffffffff163373ffffffffffffffffffffffffffffffffffffffff161461079b576040517f50d99b8500000000000000000000000000000000000000000000000000000000815260040160405180910390fd5b6000600180548060200260200160405190810160405280929190818152602001828054801561081f57602002820191906000526020600020905b8160009054906101000a900473ffffffffffffffffffffffffffffffffffffffff1673ffffffffffffffffffffffffffffffffffffffff16815260200190600101908083116107d5575b5050505050905060005b81518110156108a957600082828151811061084757610846610ceb565b5b6020026020010151905060008060008373ffffffffffffffffffffffffffffffffffffffff1673ffffffffffffffffffffffffffffffffffffffff168152602001908152602001600020819055505080806108a190610d49565b915050610829565b50600067ffffffffffffffff8111156108c5576108c4610d92565b5b6040519080825280602002602001820160405280156108f35781602001602082028036833780820191505090505b5060019080519060200190610909929190610a83565b5060007f000000000000000000000000000000000000000000000000000000000000000073ffffffffffffffffffffffffffffffffffffffff164760405161095090610e6f565b60006040518083038185875af1925050503d806000811461098d576040519150601f19603f3d011682016040523d82523d6000602084013e610992565b606091505b50509050806109a057600080fd5b5050565b6000806109b0836109e0565b90506000670de0b6b3a764000085836109c99190610fb2565b6109d3919061103b565b9050809250505092915050565b6000808273ffffffffffffffffffffffffffffffffffffffff1663feaf968c6040518163ffffffff1660e01b815260040160a06040518083038186803b158015610a2957600080fd5b505afa158015610a3d573d6000803e3d6000fd5b505050506040513d601f19601f82011682018060405250810190610a6191906110f9565b505050915050670de0b6b3a764000081610a7b9190611174565b915050919050565b828054828255906000526020600020908101928215610afc579160200282015b82811115610afb5782518260006101000a81548173ffffffffffffffffffffffffffffffffffffffff021916908373ffffffffffffffffffffffffffffffffffffffff16021790555091602001919060010190610aa3565b5b509050610b099190610b0d565b5090565b5b80821115610b26576000816000905550600101610b0e565b5090565b600080fd5b600073ffffffffffffffffffffffffffffffffffffffff82169050919050565b6000610b5a82610b2f565b9050919050565b610b6a81610b4f565b8114610b7557600080fd5b50565b600081359050610b8781610b61565b92915050565b600060208284031215610ba357610ba2610b2a565b5b6000610bb184828501610b78565b91505092915050565b6000819050919050565b610bcd81610bba565b82525050565b6000602082019050610be86000830184610bc4565b92915050565b610bf781610bba565b8114610c0257600080fd5b50565b600081359050610c1481610bee565b92915050565b600060208284031215610c3057610c2f610b2a565b5b6000610c3e84828501610c05565b91505092915050565b610c5081610b4f565b82525050565b6000602082019050610c6b6000830184610c47565b92915050565b6000819050919050565b6000610c96610c91610c8c84610b2f565b610c71565b610b2f565b9050919050565b6000610ca882610c7b565b9050919050565b6000610cba82610c9d565b9050919050565b610cca81610caf565b82525050565b6000602082019050610ce56000830184610cc1565b92915050565b7f4e487b7100000000000000000000000000000000000000000000000000000000600052603260045260246000fd5b7f4e487b7100000000000000000000000000000000000000000000000000000000600052601160045260246000fd5b6000610d5482610bba565b91507fffffffffffffffffffffffffffffffffffffffffffffffffffffffffffffffff821415610d8757610d86610d1a565b5b600182019050919050565b7f4e487b7100000000000000000000000000000000000000000000000000000000600052604160045260246000fd5b600082825260208201905092915050565b7f53656e64206661696c6564000000000000000000000000000000000000000000600082015250565b6000610e08600b83610dc1565b9150610e1382610dd2565b602082019050919050565b60006020820190508181036000830152610e3781610dfb565b9050919050565b600081905092915050565b50565b6000610e59600083610e3e565b9150610e6482610e49565b600082019050919050565b6000610e7a82610e4c565b9150819050919050565b7f43616c6c204661696c6564000000000000000000000000000000000000000000600082015250565b6000610eba600b83610dc1565b9150610ec582610e84565b602082019050919050565b60006020820190508181036000830152610ee981610ead565b9050919050565b7f4469646e27742073656e6420656e6f7567680000000000000000000000000000600082015250565b6000610f26601283610dc1565b9150610f3182610ef0565b602082019050919050565b60006020820190508181036000830152610f5581610f19565b9050919050565b6000610f6782610bba565b9150610f7283610bba565b9250827fffffffffffffffffffffffffffffffffffffffffffffffffffffffffffffffff03821115610fa757610fa6610d1a565b5b828201905092915050565b6000610fbd82610bba565b9150610fc883610bba565b9250817fffffffffffffffffffffffffffffffffffffffffffffffffffffffffffffffff048311821515161561100157611000610d1a565b5b828202905092915050565b7f4e487b7100000000000000000000000000000000000000000000000000000000600052601260045260246000fd5b600061104682610bba565b915061105183610bba565b9250826110615761106061100c565b5b828204905092915050565b600069ffffffffffffffffffff82169050919050565b61108b8161106c565b811461109657600080fd5b50565b6000815190506110a881611082565b92915050565b6000819050919050565b6110c1816110ae565b81146110cc57600080fd5b50565b6000815190506110de816110b8565b92915050565b6000815190506110f381610bee565b92915050565b600080600080600060a0868803121561111557611114610b2a565b5b600061112388828901611099565b9550506020611134888289016110cf565b9450506040611145888289016110e4565b9350506060611156888289016110e4565b925050608061116788828901611099565b9150509295509295909350565b600061117f826110ae565b915061118a836110ae565b9250827f7fffffffffffffffffffffffffffffffffffffffffffffffffffffffffffffff04821160008413600084131616156111c9576111c8610d1a565b5b817f8000000000000000000000000000000000000000000000000000000000000000058312600084126000841316161561120657611205610d1a565b5b827f8000000000000000000000000000000000000000000000000000000000000000058212600084136000841216161561124357611242610d1a565b5b827f7fffffffffffffffffffffffffffffffffffffffffffffffffffffffffffffff05821260008412600084121616156112805761127f610d1a565b5b82820290509291505056fea2646970667358221220a894a1df6af0b6c7727ed93498441b6060c83367ae2ae0230b77a7abb527592564736f6c63430008080033",
  "devdoc": {
    "author": "Sydney Sanders",
    "details": "ths implements price feeds as our library ",
    "kind": "dev",
    "methods": {},
    "title": "A contract for crowd funding ",
    "version": 1
  },
  "userdoc": {
    "kind": "user",
    "methods": {},
    "notice": "This contract is to demo a funding contract ",
    "version": 1
  },
  "storageLayout": {
    "storage": [
      {
        "astId": 59,
        "contract": "contracts/Fundme.sol:Fundme",
        "label": "s_addressToAmountFunded",
        "offset": 0,
        "slot": "0",
        "type": "t_mapping(t_address,t_uint256)"
      },
      {
        "astId": 62,
        "contract": "contracts/Fundme.sol:Fundme",
        "label": "s_funders",
        "offset": 0,
        "slot": "1",
        "type": "t_array(t_address)dyn_storage"
      },
      {
        "astId": 70,
        "contract": "contracts/Fundme.sol:Fundme",
        "label": "s_priceFeed",
        "offset": 0,
        "slot": "2",
        "type": "t_contract(AggregatorV3Interface)45"
      }
    ],
    "types": {
      "t_address": {
        "encoding": "inplace",
        "label": "address",
        "numberOfBytes": "20"
      },
      "t_array(t_address)dyn_storage": {
        "base": "t_address",
        "encoding": "dynamic_array",
        "label": "address[]",
        "numberOfBytes": "32"
      },
      "t_contract(AggregatorV3Interface)45": {
        "encoding": "inplace",
        "label": "contract AggregatorV3Interface",
        "numberOfBytes": "20"
      },
      "t_mapping(t_address,t_uint256)": {
        "encoding": "mapping",
        "key": "t_address",
        "label": "mapping(address => uint256)",
        "numberOfBytes": "32",
        "value": "t_uint256"
      },
      "t_uint256": {
        "encoding": "inplace",
        "label": "uint256",
        "numberOfBytes": "32"
      }
    }
  }
}